:020000040800F2
:1000000000080020A1090008F1090008F109000812
:1000100000000000000000000000000000000000E0
:10002000000000000000000000000000F1090008CE
:100030000000000000000000F1090008F1090008BC
:10004000F109000800000000F1090008F1090008AA
:10005000F1090008F109000829040008F109000865
:1000600000000000F1090008F1090008F10900088A
:10007000F1090008F109000800000000F10900087A
:100080000000000000000000000000000000000070
:10009000F109000800000000F1090008F10900085A
:1000A00000000000F109000800000000000000004E
:0800B000F1090008F109000844
:1000B80010B5064C2378002B07D1054B002B02D036
:1000C800044800E000BF0123237010BD0000002099
:1000D800000000003C0A0008044B10B5002B03D0B8
:1000E8000349044800E000BF10BDC04600000000FE
:1000F800040000203C0A000880B582B000AF02006E
:10010800FB1D1A70FB1D1B787F2B09D8FB1D1B7864
:100118001A001F231A40044B012191400A001A605B
:10012800C046BD4602B080BD00E100E090B583B096
:1001380000AF02003960FB1D1A70FB1D1B787F2B76
:1001480028D82F4AFB1D1B785BB29B08C0339B0045
:100158009B58FA1D1278110003220A40D200FF2191
:1001680091400A00D2431A4011003B689B01FF22CC
:100178001A40FB1D1B78180003230340DB009A403C
:100188001F48FB1D1B785BB29B080A43C0339B00CA
:100198001A5031E01B4AFB1D1B7819000F230B4036
:1001A800083B9B0806339B00D31804331B68FA1DD1
:1001B8001278110003220A40D200FF2191400A0060
:1001C800D2431A4011003B689B01FF221A40FB1DD5
:1001D8001B78180003230340DB009A400948FB1DE5
:1001E8001B781C000F232340083B9B080A43063357
:1001F8009B00C31804331A60C046BD4603B090BDC7
:1002080000E100E000ED00E080B582B000AF3B0007
:10021800186059603B001B7801221340DBB2444848
:100228001A00052100F03EF93B001B78022213401A
:10023800DBB23F481A00062100F034F93B005B7836
:1002480001221340DBB23A481A00042100F02AF9CF
:100258003B005B7802221340DAB2A023DB050821B9
:10026800180000F01FF93B005B7804221340DAB253
:10027800A023DB050021180000F014F93B005B788F
:1002880008221340DAB2A023DB050121180000F090
:1002980009F93B009B7801221340DBB224481A007D
:1002A800032100F0FFF83B009B7802221340DBB2E9
:1002B8001F481A00012100F0F5F83B009B78042242
:1002C8001340DBB21A481A00002100F0EBF83B009B
:1002D800DB7801221340DAB2A023DB050F211800D6
:1002E80000F0E0F83B00DB7802221340DAB2A023EA
:1002F800DB050B21180000F0D5F83B00DB78042261
:100308001340DAB2A023DB050A21180000F0CAF86E
:100318003B00DB7808221340DAB2A023DB05092171
:10032800180000F0BFF8C046BD4602B080BDC04608
:100338000004005080B582B000AF00F0DBFA00F096
:10034800DBF800F00BF900F04BF8FB1D00221A70E7
:10035800204B1B681B0ADBB20F221340DAB21E4B7C
:10036800DA701D4BDB78FA1D12789A42F0D0FB1D2B
:10037800194AD2781A70174B1B681B0DDBB203227F
:100388001340DAB2144B1A70124B1B681B0CDBB209
:100398000F221340DAB2104B5A700E4B1B681B0B1E
:1003A800DBB207221340DAB20B4B9A70094B1B6879
:1003B8001B0ADBB20F221340DAB2074BDA70074B85
:1003C8001B78002BC4D0044B18685968FFF71CFF32
:1003D800BEE7C04600280040200000201C00002086
:1003E80080B500AF0C4B00221A610C4B1A680B4BFE
:1003F80004210A431A60094B9A68084B04210A43EE
:100408009A600620FFF778FE00210620FFF78EFE8F
:10041800C046BD4680BDC046000001400004014002
:1004280080B500AF0F4B1B78012B0AD1A023DB0549
:1004380000225A610C4B00225A610A4B00221A70A2
:1004480007E0084B01221A70084B18685968FFF733
:10045800DBFE074B5A69064B04210A435A61C04622
:10046800BD4680BD1C000020000400502000002074
:100478000004014080B582B000AF78607A6813004C
:100488005B019B1A9B009B18DB007B6000E0C04669
:100498007B685A1E7A60002BF9D1C046C046BD461B
:1004A80002B080BD80B582B000AF7860080011004E
:1004B800FB1C021C1A70BB1C0A1C1A70BB1C1B7884
:1004C800002B0AD07B685B69FA1C127801219140E5
:1004D8000A001A437B685A610AE07B685B69FA1C68
:1004E8001278012191400A00D2431A407B685A6170
:1004F800C046BD4602B080BD80B500AF134BDA6A76
:10050800124B01210A43DA62104BDA6A0F4B0221BF
:100518000A43DA62A023DB050D4A1A60A023DB0533
:100528001A6AA023DB05C021C9010A431A62A02365
:10053800DB051A6AA023DB05C021C9020A431A6237
:10054800044B054A1A60C046BD4680BD00100240F3
:1005580085FE556B0004005055D5FFFF80B582B06D
:1005680000AFDB4B9A6BDA4B802149050A439A634B
:10057800D84B1A68D74B802149000A431A60D44BDC
:100588001A6DD34BC02149010A431A65D04B1A6D25
:10059800CF4B802149000A431A65C046CC4B1A6DDF
:1005A80080239B001A4080239B009A42F6D1C84BB7
:1005B8001A6DC74B8021C9020A431A65C44B1A6DCC
:1005C800C34BC5490A401A65C14B1A6DC04B8021FF
:1005D80049020A431A65BE4B9A6BBD4BBF490A4094
:1005E8009A63FB1D00221A70BB1D00221A707B1D26
:1005F80000221A703B1D00221A70FB1C00221A7080
:10060800FB1D05221A70B64BB64A1A6533E0BB1DAE
:100618001B78012B05D8BB1D1A78BB1D01321A7037
:1006280002E0BB1D00221A70BB1D1B78012213407B
:10063800DBB2AD481A000521FFF734FFBB1D1B785C
:1006480002221340DBB2A8481A000621FFF72AFF4E
:10065800FA239B001800FFF70DFFA023DB051B6999
:1006680004221340FA1DF91D09781170002B02D1DC
:10067800FB1D01221A70FB1D1B78002BC7D04AE016
:100688007B1D1B78082B05D87B1D1A787B1D013232
:100698001A7002E07B1D00221A707B1D1B78012254
:1006A8001340DBB290481A000421FFF7FBFE7B1DC4
:1006B8001B7802221340DAB2A023DB0508211800B8
:1006C800FFF7F0FE7B1D1B7804221340DAB2A0234B
:1006D800DB0500211800FFF7E5FE7B1D1B780822CB
:1006E8001340DAB2A023DB0501211800FFF7DAFE78
:1006F800FA239B001800FFF7BDFEA023DB051B694A
:1007080004221340FA1DF91D09781170002B02D13B
:10071800FB1D02221A70FB1D1B78012BB0D03DE097
:100728003B1D1B78052B05D83B1D1A783B1D013254
:100738001A7002E03B1D00221A703B1D1B78012233
:100748001340DBB268481A000321FFF7ABFE3B1DDC
:100758001B7802221340DBB263481A000121FFF71D
:10076800A1FE3B1D1B7804221340DBB25E481A0031
:100778000021FFF797FEFA239B001800FFF77AFE87
:10078800A023DB051B6904221340FA1DF91D097813
:100798001170002B02D1FB1D03221A70FB1D1B7860
:1007A800022BBDD057E0FB1C1B78082B05D8FB1C7F
:1007B8001A78FB1C01321A7002E0FB1C00221A7026
:1007C800FB1C1B7801221340DAB2A023DB050F21A2
:1007D8001800FFF767FEFB1C1B7802221340DAB2F1
:1007E800A023DB050B211800FFF75CFEFB1C1B7820
:1007F80004221340DAB2A023DB050A211800FFF710
:1008080051FEFB1C1B7808221340DAB2A023DB053B
:1008180009211800FFF746FEFA239B001800FFF78E
:1008280029FEA023DB051B690422134002D1FB1D0E
:1008380000221A70BB1D1B781A057B1D1B781B0430
:100848001A433B1D1B781B031A43FB1C1B781B0216
:100858001A43234B1A65FB1D1B78032BA3D0204B8F
:10086800CA225A621E4B53225A621D4B8022DA60FA
:10087800C0461B4BDB6840221340402BF9D1184B74
:100888001A4A1A61164A164B126D1A60144B9A6866
:10089800134B40210A439A60114B9A68104B202150
:1008A8000A439A600E4BDA680D4B80218A43DA605E
:1008B8000B4BFE225A620A4B64225A62054B1A6895
:1008C800044B0B490A401A60C046BD4602B080BDC1
:1008D8000010024000700040FFFFFCFFFFFFFFEF29
:1008E800002800400037170000040050FF007F0078
:1008F800FFFEFFFF80B500AF244B1A68234B082189
:100908000A431A60214B1A68204B01210A431A60D6
:10091800C0461E4B1B6804221340FAD01B4B9A6B2F
:100928001A4B802149050A439A63194B1A68184BD8
:10093800C02149010A431A60144BDA68134B03219A
:100948008A43DA60114BDA68104B01210A43DA60F6
:10095800C0460E4BDB680C221340042BF9D10B4B1D
:10096800DA680A4B8021C9050A43DA60074BDA685E
:10097800064B802189040A43DA60044B9A6B034BC7
:1009880004490A409A63C046BD4680BD0010024033
:1009980000700040FFFFFFEF0D48854600E000BFF4
:1009A8000C480D490D4A002302E0D458C4500433C2
:1009B800C4188C42F9D30A4A0A4C002301E0136098
:1009C8000432A242FBD300F011F8FFF7B3FCFEE7B4
:1009D8000008002000000020000000205C0A000839
:1009E8000000002028000020FEE7000070B5002667
:1009F8000C4D0D4C641BA410A64209D1002600F032
:100A080019F80A4D0A4C641BA410A64205D170BD02
:100A1800B300EB5898470136EEE7B300EB58984718
:100A28000136F2E7540A0008540A0008540A00087C
:100A3800580A0008F8B5C046F8BC08BC9E4670477E
:0C0A4800F8B5C046F8BC08BC9E467047DC
:040A5400E1000008B5
:040A5800B9000008D9
:04000005080009A145
:00000001FF
