:020000040800F2
:1000000000080020C1090008110A0008110A0008B0
:1000100000000000000000000000000000000000E0
:10002000000000000000000000000000110A0008AD
:100030000000000000000000110A0008110A00087A
:10004000110A000800000000110A0008110A000847
:10005000110A0008110A0008110A0008110A000814
:1000600000000000110A0008110A0008110A000827
:10007000110A0008110A000800000000110A000817
:100080000000000000000000000000000000000070
:10009000110A000800000000110A0008110A0008F7
:1000A00000000000110A000800000000000000002D
:0800B000110A0008110A000802
:1000B80010B5064C2378002B07D1054B002B02D036
:1000C800044800E000BF0123237010BD0000002099
:1000D800000000005C0A0008044B10B5002B03D098
:1000E8000349044800E000BF10BDC04600000000FE
:1000F800040000205C0A000880B584B000AF00F05E
:1001080009FC00F009FA00F039FA0F23FB18002265
:100118001A700E23FB1800221A70DC4ADB4B126897
:100128001A65DA4B1B6D1B0DDBB203221340DAB2E2
:100138003B1D1A70D54B1B6D1B0CDBB20F221340F5
:10014800DAB23B1D5A70D14B1B6D1B0BDBB2072279
:100158001340DAB23B1D9A70CC4B1B6D1B0ADBB205
:100168000F221340DAB23B1DDA70C84B1B6D1B0916
:10017800DBB207221340DAB23B1D1A71C34B1B6D69
:10018800DBB20F221340DAB23B1D5A710C217B18E7
:100198003A1D52791A700E203A187B1812781B787B
:1001A8009A4200D192E03B187A1812781A700F23FD
:1001B800FB181B78002B00D188E03B1D1B7801221F
:1001C8001340DBB2B2481A00052100F07BF93B1D51
:1001D8001B7802221340DBB2AD481A00062100F05A
:1001E80071F93B1D5B7801221340DBB2A8481A0065
:1001F800042100F067F93B1D5B7802221340DAB254
:10020800A023DB050821180000F05CF93B1D5B7892
:1002180004221340DAB2A023DB050021180000F005
:1002280051F93B1D5B7808221340DAB2A023DB05A5
:100238000121180000F046F93B1D9B78012213406C
:10024800DBB293481A00032100F03CF93B1D9B7870
:1002580002221340DBB28E481A00012100F032F965
:100268003B1D9B7804221340DBB289481A00002109
:1002780000F028F93B1DDB7801221340DAB2A023F5
:10028800DB050F21180000F01DF93B1DDB78022269
:100298001340DAB2A023DB050B21180000F012F995
:1002A8003B1DDB7804221340DAB2A023DB050A21C8
:1002B800180000F007F93B1DDB7808221340DAB27A
:1002C800A023DB050921180000F0FCF8A023DB05BA
:1002D8001B690422134000D0BBE00F22BB181B7817
:1002E800002B00D0B5E0BB1801221A703B1D1B780B
:1002F80001221340DBB266481A00052100F0E2F83B
:100308003B1D1B7802221340DBB261481A0006210C
:1003180000F0D8F83B1D5B7801221340DBB25C4843
:100328001A00042100F0CEF83B1D5B78022213402E
:10033800DAB2A023DB050821180000F0C3F83B1D42
:100348005B7804221340DAB2A023DB0500211800F1
:1003580000F0B8F83B1D5B7808221340DAB2A023FE
:10036800DB050121180000F0ADF83B1D9B78012248
:100378001340DBB246481A00032100F0A3F83B1DE6
:100388009B7802221340DBB241481A00012100F099
:1003980099F83B1D9B7804221340DBB23C481A00B5
:1003A800002100F08FF83B1DDB7801221340DAB200
:1003B800A023DB050F21180000F084F83B1DDB7833
:1003C80002221340DAB2A023DB050B21180000F04B
:1003D80079F83B1DDB7804221340DAB2A023DB0551
:1003E8000A21180000F06EF83B1DDB780822134044
:1003F800DAB2A023DB050921180000F063F8FA231C
:100408005B00180000F046F80D23FB1800221A7054
:1004180019E0A023DB051B690422134007D16420DF
:1004280000F038F80F23FB1802221A7005E00F239A
:10043800FB1801221A70C04627E00D217B181A7894
:100448007B1801321A700D23FB181B781E2BE0D97C
:100458001BE0A023DB051B690422134000D05CE6E7
:100468000F22BB181B78012B00D056E6BB180022C0
:100478001A70A023DB0500225A61054B00225A613D
:10048800FA235B00180000F005F846E60028004053
:100498000004005080B582B000AF78607A6813001D
:1004A8005B019B1A9B009B18DB007B6000E0C04649
:1004B8007B685A1E7A60002BF9D1C046C046BD46FB
:1004C80002B080BD80B582B000AF7860080011002E
:1004D800FB1C021C1A70BB1C0A1C1A70BB1C1B7864
:1004E800002B0AD07B685B69FA1C127801219140C5
:1004F8000A001A437B685A610AE07B685B69FA1C48
:100508001278012191400A00D2431A407B685A614F
:10051800C046BD4602B080BD80B500AF134BDA6A55
:10052800124B01210A43DA62104BDA6A0F4B02219F
:100538000A43DA62A023DB050D4A1A60A023DB0513
:100548001A6AA023DB05C021C9010A431A62A02345
:10055800DB051A6AA023DB05C021C9020A431A6217
:10056800044B054A1A60C046BD4680BD00100240D3
:1005780085FE556B0004005055D5FFFF80B582B04D
:1005880000AFDB4B9A6BDA4B802149050A439A632B
:10059800D84B1A68D74B802149000A431A60D44BBC
:1005A8001A6DD34BC02149010A431A65D04B1A6D05
:1005B800CF4B802149000A431A65C046CC4B1A6DBF
:1005C80080239B001A4080239B009A42F6D1C84B97
:1005D8001A6DC74B8021C9020A431A65C44B1A6DAC
:1005E800C34BC5490A401A65C14B1A6DC04B8021DF
:1005F80049020A431A65BE4B9A6BBD4BBF490A4074
:100608009A63FB1D00221A70BB1D00221A707B1D05
:1006180000221A703B1D00221A70FB1C00221A705F
:10062800FB1D05221A70B64BB64A1A6533E0BB1D8E
:100638001B78012B05D8BB1D1A78BB1D01321A7017
:1006480002E0BB1D00221A70BB1D1B78012213405B
:10065800DBB2AD481A000521FFF734FFBB1D1B783C
:1006680002221340DBB2A8481A000621FFF72AFF2E
:10067800FA239B001800FFF70DFFA023DB051B6979
:1006880004221340FA1DF91D09781170002B02D1BC
:10069800FB1D01221A70FB1D1B78002BC7D04AE0F6
:1006A8007B1D1B78082B05D87B1D1A787B1D013212
:1006B8001A7002E07B1D00221A707B1D1B78012234
:1006C8001340DBB290481A000421FFF7FBFE7B1DA4
:1006D8001B7802221340DAB2A023DB050821180098
:1006E800FFF7F0FE7B1D1B7804221340DAB2A0232B
:1006F800DB0500211800FFF7E5FE7B1D1B780822AB
:100708001340DAB2A023DB0501211800FFF7DAFE57
:10071800FA239B001800FFF7BDFEA023DB051B6929
:1007280004221340FA1DF91D09781170002B02D11B
:10073800FB1D02221A70FB1D1B78012BB0D03DE077
:100748003B1D1B78052B05D83B1D1A783B1D013234
:100758001A7002E03B1D00221A703B1D1B78012213
:100768001340DBB268481A000321FFF7ABFE3B1DBC
:100778001B7802221340DBB263481A000121FFF7FD
:10078800A1FE3B1D1B7804221340DBB25E481A0011
:100798000021FFF797FEFA239B001800FFF77AFE67
:1007A800A023DB051B6904221340FA1DF91D0978F3
:1007B8001170002B02D1FB1D03221A70FB1D1B7840
:1007C800022BBDD057E0FB1C1B78082B05D8FB1C5F
:1007D8001A78FB1C01321A7002E0FB1C00221A7006
:1007E800FB1C1B7801221340DAB2A023DB050F2182
:1007F8001800FFF767FEFB1C1B7802221340DAB2D1
:10080800A023DB050B211800FFF75CFEFB1C1B78FF
:1008180004221340DAB2A023DB050A211800FFF7EF
:1008280051FEFB1C1B7808221340DAB2A023DB051B
:1008380009211800FFF746FEFA239B001800FFF76E
:1008480029FEA023DB051B690422134002D1FB1DEE
:1008580000221A70BB1D1B781A057B1D1B781B0410
:100868001A433B1D1B781B031A43FB1C1B781B02F6
:100878001A43234B1A65FB1D1B78032BA3D0204B6F
:10088800CA225A621E4B53225A621D4B8022DA60DA
:10089800C0461B4BDB6840221340402BF9D1184B54
:1008A8001A4A1A61164A164B126D1A60144B9A6846
:1008B800134B40210A439A60114B9A68104B202130
:1008C8000A439A600E4BDA680D4B80218A43DA603E
:1008D8000B4BFE225A620A4B64225A62054B1A6875
:1008E800044B0B490A401A60C046BD4602B080BDA1
:1008F8000010024000700040FFFFFCFFFFFFFFEF09
:10090800002800400037170000040050FF007F0057
:10091800FFFEFFFF80B500AF244B1A68234B082168
:100928000A431A60214B1A68204B01210A431A60B6
:10093800C0461E4B1B6804221340FAD01B4B9A6B0F
:100948001A4B802149050A439A63194B1A68184BB8
:10095800C02149010A431A60144BDA68134B03217A
:100968008A43DA60114BDA68104B01210A43DA60D6
:10097800C0460E4BDB680C221340042BF9D10B4BFD
:10098800DA680A4B8021C9050A43DA60074BDA683E
:10099800064B802189040A43DA60044B9A6B034BA7
:1009A80004490A409A63C046BD4680BD0010024013
:1009B80000700040FFFFFFEF0D48854600E000BFD4
:1009C8000C480D490D4A002302E0D458C4500433A2
:1009D800C4188C42F9D30A4A0A4C002301E0136078
:1009E8000432A242FBD300F011F8FFF785FBFEE7C3
:1009F8000008002000000020000000207C0A0008F9
:100A0800000000201C000020FEE7000070B5002652
:100A18000C4D0D4C641BA410A64209D1002600F011
:100A280019F80A4D0A4C641BA410A64205D170BDE2
:100A3800B300EB5898470136EEE7B300EB589847F8
:100A48000136F2E7740A0008740A0008740A0008FC
:100A5800780A0008F8B5C046F8BC08BC9E4670473E
:0C0A6800F8B5C046F8BC08BC9E467047BC
:040A7400E100000895
:040A7800B9000008B9
:04000005080009C125
:00000001FF
