:020000040800F2
:1000000000080020D90A0008290B0008290B000865
:1000100000000000000000000000000000000000E0
:10002000000000000000000000000000290B000894
:100030000000000000000000290B0008290B000848
:10004000290B00080000000021040008290B00080B
:10005000290B0008290B0008CD030008290B000814
:1000600000000000290B0008290B0008290B0008DC
:10007000290B0008290B000800000000290B0008CC
:100080000000000000000000000000000000000070
:10009000290B000800000000290B0008290B0008AC
:1000A00000000000290B0008000000000000000014
:0800B000290B0008290B0008D0
:1000B80010B5064C2378002B07D1054B002B02D036
:1000C800044800E000BF0123237010BD0000002099
:1000D80000000000740B0008044B10B5002B03D07F
:1000E8000349044800E000BF10BDC04600000000FE
:1000F80004000020740B000880B582B000AF020035
:10010800FB1D1A70FB1D1B787F2B09D8FB1D1B7864
:100118001A001F231A40044B012191400A001A605B
:10012800C046BD4602B080BD00E100E090B583B096
:1001380000AF02003960FB1D1A70FB1D1B787F2B76
:1001480028D82F4AFB1D1B785BB29B08C0339B0045
:100158009B58FA1D1278110003220A40D200FF2191
:1001680091400A00D2431A4011003B689B01FF22CC
:100178001A40FB1D1B78180003230340DB009A403C
:100188001F48FB1D1B785BB29B080A43C0339B00CA
:100198001A5031E01B4AFB1D1B7819000F230B4036
:1001A800083B9B0806339B00D31804331B68FA1DD1
:1001B8001278110003220A40D200FF2191400A0060
:1001C800D2431A4011003B689B01FF221A40FB1DD5
:1001D8001B78180003230340DB009A400948FB1DE5
:1001E8001B781C000F232340083B9B080A43063357
:1001F8009B00C31804331A60C046BD4603B090BDC7
:1002080000E100E000ED00E080B582B000AF3B0007
:10021800186059603B001B7801221340DBB2444848
:100228001A00052100F0C6F93B001B780222134092
:10023800DBB23F481A00062100F0BCF93B005B78AE
:1002480001221340DBB23A481A00042100F0B2F947
:100258003B005B7802221340DAB2A023DB050821B9
:10026800180000F0A7F93B005B7804221340DAB2CB
:10027800A023DB050021180000F09CF93B005B7807
:1002880008221340DAB2A023DB050121180000F090
:1002980091F93B009B7801221340DBB224481A00F5
:1002A800032100F087F93B009B7802221340DBB260
:1002B8001F481A00012100F07DF93B009B780422B9
:1002C8001340DBB21A481A00002100F073F93B0012
:1002D800DB7801221340DAB2A023DB050F211800D6
:1002E80000F068F93B00DB7802221340DAB2A02361
:1002F800DB050B21180000F05DF93B00DB780422D8
:100308001340DAB2A023DB050A21180000F052F9E5
:100318003B00DB7808221340DAB2A023DB05092171
:10032800180000F047F9C046BD4602B080BDC0467F
:100338000004005080B500AF00F078FB00F064F9CD
:1003480000F094F900F0DCF81B4B1B681B0DDBB2C6
:1003580003221340DAB2194B1A70174B1B681B0C97
:10036800DBB20F221340DAB2144B5A70124B1B68DF
:100378001B0BDBB207221340DAB2104B9A700E4BFC
:100388001B681B0ADBB20F221340DAB20B4BDA7080
:10039800094B1B681B0ADBB20F221340DAB2074B6A
:1003A800DA70074B1B78002B04D0044B1868596887
:1003B800FFF72AFF30BFFDE700280040200000209B
:1003C8001C00002080B500AF0F4B1B78012B0AD111
:1003D800A023DB0500225A610C4B00225A610A4B0C
:1003E80000221A7007E0084B01221A70084B18689F
:1003F8005968FFF709FF074B5A69064B04210A435E
:100408005A61C046BD4680BD1C0000200004005053
:10041800200000200004014080B500AF264BDA68B8
:1004280080235B0013403BD0234B1B681B0DDBB2C2
:1004380003221340DAB2214B1A701F4B1B681B0CA6
:10044800DBB20F221340DAB21C4B5A701A4B1B68EE
:100458001B0BDBB207221340DAB2184B9A70164B0B
:100468001B681B0ADBB20F221340DAB2134BDA7097
:10047800114B1B681B0ADBB20F221340DAB20F4B79
:10048800DA700F4B1B78002B04D00C4B1868596896
:10049800FFF7BAFE084BDA68074B0A490A40DA60E8
:1004A800094B5A69084B802189020A435A6100F0B6
:1004B8000DF8C046BD4680BD002800402000002041
:1004C8001C000020FFFEFFFF0004014080B500AFC4
:1004D8000A4B1A68094B802189000A431A60074BA6
:1004E8001A68064B01210A431A60044B1A68034B29
:1004F80002210A431A60C046BD4680BD0070004014
:1005080080B500AF1D4B00221A611D4B1A681C4BA9
:1005180004210A431A601A4B9A68194B04210A43AA
:100528009A600620FFF7E8FD00210620FFF7FEFD90
:10053800134B1A68124B802189020A431A60104B28
:100548009A680F4B802189020A439A600220FFF7BC
:10055800D3FD00210220FFF7E9FD094B5A69084B3A
:1005680004210A435A61064B5A69054B80218902C6
:100578000A435A61C046BD4680BDC04600000140DE
:100588000004014080B582B000AF78607A6813003B
:100598005B019B1A9B009B18DB007B6000E0C04658
:1005A8007B685A1E7A60002BF9D1C046C046BD460A
:1005B80002B080BD80B582B000AF7860080011003D
:1005C800FB1C021C1A70BB1C0A1C1A70BB1C1B7873
:1005D800002B0AD07B685B69FA1C127801219140D4
:1005E8000A001A437B685A610AE07B685B69FA1C57
:1005F8001278012191400A00D2431A407B685A615F
:10060800C046BD4602B080BD80B500AF134BDA6A64
:10061800124B01210A43DA62104BDA6A0F4B0221AE
:100628000A43DA62A023DB050D4A1A60A023DB0522
:100638001A6AA023DB05C021C9010A431A62A02354
:10064800DB051A6AA023DB05C021C9020A431A6226
:10065800044B054A1A60C046BD4680BD00100240E2
:1006680085FE556B0004005055D5FFFF80B582B05C
:1006780000AF934B9A6B924B802149050A439A63CA
:10068800904B1A688F4B802149000A431A608C4BA3
:100698001A6D8B4BC02149010A431A65884B1A6DA4
:1006A800874B802149000A431A65C046844B1A6D5E
:1006B80080239B001A4080239B009A42F6D1804BEE
:1006C8001A6D7F4B8021C9020A431A657C4B1A6D4B
:1006D8007B4B7D490A401A65794B1A6D784B80210E
:1006E80049020A431A65764B9A6B754B77490A405B
:1006F8009A63FB1D00221A70BB1D00221A707B1D15
:1007080000221A703B1D00221A70FB1C00221A706E
:1007180033E0BB1D1B78012B05D8BB1D1A78BB1D08
:1007280001321A7002E0BB1D00221A70BB1D1B7833
:1007380001221340DBB266481A000521FFF73AFF91
:10074800BB1D1B7802221340DBB261481A00062148
:10075800FFF730FFFA239B001800FFF713FFA023D1
:10076800DB051B6904221340FA1DF91D0978117075
:10077800002B02D1FB1D01221A70FB1D1B78002BD8
:10078800C7D04AE07B1D1B78082B05D87B1D1A783B
:100798007B1D01321A7002E07B1D00221A707B1D3E
:1007A8001B7801221340DBB249481A000421FFF7E5
:1007B80001FF7B1D1B7802221340DAB2A023DB0560
:1007C80008211800FFF7F6FE7B1D1B780422134052
:1007D800DAB2A023DB0500211800FFF7EBFE7B1D32
:1007E8001B7808221340DAB2A023DB050121180088
:1007F800FFF7E0FEFA239B001800FFF7C3FEA023D3
:10080800DB051B6904221340FA1DF91D09781170D4
:10081800002B02D1FB1D02221A70FB1D1B78012B35
:10082800B0D03DE03B1D1B78052B05D83B1D1A7841
:100838003B1D01321A7002E03B1D00221A703B1D5D
:100848001B7801221340DBB221481A000321FFF76D
:10085800B1FE3B1D1B7802221340DBB21C481A0074
:100868000121FFF7A7FE3B1D1B7804221340DBB2D2
:1008780017481A000021FFF79DFEFA239B00180075
:10088800FFF780FEA023DB051B6904221340FA1D35
:10089800F91D09781170002B02D1FB1D03221A7073
:1008A800FB1D1B78022BBDD062E0FB1C1B78082BBC
:1008B80010D8FB1C1A78FB1C01321A700DE0C046D8
:1008C8000010024000700040FFFFFCFFFFFFFFEF39
:1008D80000040050FB1C00221A70FB1C1B7801222C
:1008E8001340DAB2A023DB050F211800FFF762FEE0
:1008F800FB1C1B7802221340DAB2A023DB050B2174
:100908001800FFF757FEFB1C1B7804221340DAB2CD
:10091800A023DB050A211800FFF74CFEFB1C1B78FF
:1009280008221340DAB2A023DB0509211800FFF7DB
:1009380041FEFA239B001800FFF724FEA023DB05E5
:100948001B690422134002D1FB1D00221A70BB1D33
:100958001B781A057B1D1B781B041A433B1D1B784B
:100968001B031A43FB1C1B781B021A432A4B1A65EC
:10097800FB1D1B78032B98D0274BCA225A62264BA3
:1009880053225A62244B8022DA60C046224BDB682D
:1009980040221340402BF9D11F4B204A1A611E4AAE
:1009A8001D4B126D1A601C4B9A681B4B40210A4361
:1009B8009A60194B9A68184B20210A439A60164B83
:1009C8009A68154B16490A409A60C046124BDB6874
:1009D80001221340012BF9D10F4B124ADA610E4B59
:1009E8009A680D4B882149010A439A600A4BDA68D4
:1009F800094B80218A43DA60074BFE225A62064B74
:100A080064225A62084B1A68074B05490A401A6063
:100A1800C046BD4602B080BD00280040FF007F00F0
:100A2800FFFEFFFF008080800070004080B500AFAF
:100A3800244B1A68234B08210A431A60214B1A6871
:100A4800204B01210A431A60C0461E4B1B68042232
:100A58001340FAD01B4B9A6B1A4B802149050A4365
:100A68009A63194B1A68184BC02149010A431A6046
:100A7800144BDA68134B03218A43DA60114BDA68A6
:100A8800104B01210A43DA60C0460E4BDB680C228A
:100A98001340042BF9D10B4BDA680A4B8021C905A6
:100AA8000A43DA60074BDA68064B802189040A4357
:100AB800DA60044B9A6B034B04490A409A63C046B8
:100AC800BD4680BD0010024000700040FFFFFFEFF0
:100AD8000D48854600E000BF0C480D490D4A00232B
:100AE80002E0D458C4500433C4188C42F9D30A4ADB
:100AF8000A4C002301E013600432A242FBD300F049
:100B080011F8FFF717FCFEE700080020000000209E
:100B180000000020940B000800000020280000209E
:100B2800FEE7000070B500260C4D0D4C641BA410A8
:100B3800A64209D1002600F019F80A4D0A4C641B98
:100B4800A410A64205D170BDB300EB5898470136F2
:100B5800EEE7B300EB5898470136F2E78C0B000834
:100B68008C0B00088C0B0008900B0008F8B5C046E9
:100B7800F8BC08BC9E467047F8B5C046F8BC08BC2F
:040B88009E467047CE
:040B8C00E10000087C
:040B9000B9000008A0
:0400000508000AD90C
:00000001FF
