:020000040800F2
:1000000000080020B50A0008050B0008050B0008D1
:1000100000000000000000000000000000000000E0
:10002000000000000000000000000000050B0008B8
:100030000000000000000000050B0008050B000890
:10004000050B00080000000021040008050B000853
:10005000050B0008050B0008CD030008050B000880
:1000600000000000050B0008050B0008050B000848
:10007000050B0008050B000800000000050B000838
:100080000000000000000000000000000000000070
:10009000050B000800000000050B0008050B000818
:1000A00000000000050B0008000000000000000038
:0800B000050B0008050B000818
:1000B80010B5064C2378002B07D1054B002B02D036
:1000C800044800E000BF0123237010BD0000002099
:1000D80000000000500B0008044B10B5002B03D0A3
:1000E8000349044800E000BF10BDC04600000000FE
:1000F80004000020500B000880B582B000AF020059
:10010800FB1D1A70FB1D1B787F2B09D8FB1D1B7864
:100118001A001F231A40044B012191400A001A605B
:10012800C046BD4602B080BD00E100E090B583B096
:1001380000AF02003960FB1D1A70FB1D1B787F2B76
:1001480028D82F4AFB1D1B785BB29B08C0339B0045
:100158009B58FA1D1278110003220A40D200FF2191
:1001680091400A00D2431A4011003B689B01FF22CC
:100178001A40FB1D1B78180003230340DB009A403C
:100188001F48FB1D1B785BB29B080A43C0339B00CA
:100198001A5031E01B4AFB1D1B7819000F230B4036
:1001A800083B9B0806339B00D31804331B68FA1DD1
:1001B8001278110003220A40D200FF2191400A0060
:1001C800D2431A4011003B689B01FF221A40FB1DD5
:1001D8001B78180003230340DB009A400948FB1DE5
:1001E8001B781C000F232340083B9B080A43063357
:1001F8009B00C31804331A60C046BD4603B090BDC7
:1002080000E100E000ED00E080B582B000AF3B0007
:10021800186059603B001B7801221340DBB2444848
:100228001A00052100F0AAF93B001B7802221340AE
:10023800DBB23F481A00062100F0A0F93B005B78CA
:1002480001221340DBB23A481A00042100F096F963
:100258003B005B7802221340DAB2A023DB050821B9
:10026800180000F08BF93B005B7804221340DAB2E7
:10027800A023DB050021180000F080F93B005B7823
:1002880008221340DAB2A023DB050121180000F090
:1002980075F93B009B7801221340DBB224481A0011
:1002A800032100F06BF93B009B7802221340DBB27C
:1002B8001F481A00012100F061F93B009B780422D5
:1002C8001340DBB21A481A00002100F057F93B002E
:1002D800DB7801221340DAB2A023DB050F211800D6
:1002E80000F04CF93B00DB7802221340DAB2A0237D
:1002F800DB050B21180000F041F93B00DB780422F4
:100308001340DAB2A023DB050A21180000F036F901
:100318003B00DB7808221340DAB2A023DB05092171
:10032800180000F02BF9C046BD4602B080BDC0469B
:100338000004005080B500AF00F066FB00F048F9FB
:1003480000F078F900F0C0F81B4B1B681B0DDBB2FE
:1003580003221340DAB2194B1A70174B1B681B0C97
:10036800DBB20F221340DAB2144B5A70124B1B68DF
:100378001B0BDBB207221340DAB2104B9A700E4BFC
:100388001B681B0ADBB20F221340DAB20B4BDA7080
:10039800094B1B681B0ADBB20F221340DAB2074B6A
:1003A800DA70074B1B78002B04D0044B1868596887
:1003B800FFF72AFFC046FDE7002800402000002084
:1003C8001C00002080B500AF0F4B1B78012B0AD111
:1003D800A023DB0500225A610C4B00225A610A4B0C
:1003E80000221A7007E0084B01221A70084B18689F
:1003F8005968FFF709FF074B5A69064B04210A435E
:100408005A61C046BD4680BD1C0000200004005053
:10041800200000200004014080B500AF254BDA68B9
:1004280080235B0013403BD0224B1B681B0DDBB2C3
:1004380003221340DAB2204B1A701E4B1B681B0CA8
:10044800DBB20F221340DAB21B4B5A70194B1B68F0
:100458001B0BDBB207221340DAB2174B9A70154B0D
:100468001B681B0ADBB20F221340DAB2124BDA7098
:10047800104B1B681B0ADBB20F221340DAB20E4B7B
:10048800DA700E4B1B78002B04D00B4B1868596898
:10049800FFF7BAFE074BDA68064B09490A40DA60EB
:1004A800084B5A69074B802189020A435A61C046A2
:1004B800BD4680BD00280040200000201C00002010
:1004C800FFFEFFFF0004014080B500AF1D4B002276
:1004D8001A611D4B1A681C4B04210A431A601A4BF7
:1004E8009A68194B04210A439A600620FFF704FE14
:1004F80000210620FFF71AFE134B1A68124B8021C1
:1005080089020A431A60104B9A680F4B80218902AE
:100518000A439A600220FFF7EFFD00210220FFF74F
:1005280005FE094B5A69084B04210A435A61064BD8
:100538005A69054B802189020A435A61C046BD4663
:1005480080BDC046000001400004014080B582B073
:1005580000AF78607A6813005B019B1A9B009B18B8
:10056800DB007B6000E0C0467B685A1E7A60002B87
:10057800F9D1C046C046BD4602B080BD80B582B044
:1005880000AF786008001100FB1C021C1A70BB1C2D
:100598000A1C1A70BB1C1B78002B0AD07B685B698D
:1005A800FA1C1278012191400A001A437B685A61AB
:1005B8000AE07B685B69FA1C1278012191400A0005
:1005C800D2431A407B685A61C046BD4602B080BD1E
:1005D80080B500AF134BDA6A124B01210A43DA6285
:1005E800104BDA6A0F4B02210A43DA62A023DB05BB
:1005F8000D4A1A60A023DB051A6AA023DB05C02177
:10060800C9010A431A62A023DB051A6AA023DB0585
:10061800C021C9020A431A62044B054A1A60C0463F
:10062800BD4680BD0010024085FE556B0004005099
:1006380055D5FFFF80B582B000AF964B9A6B954BAE
:10064800802149050A439A63934B1A68924B80218B
:1006580049000A431A608F4B1A6D8E4BC02149011D
:100668000A431A658B4B1A6D8A4B802149000A434D
:100678001A65C046874B1A6D80239B001A40802359
:100688009B009A42F6D1834B1A6D824B8021C90296
:100698000A431A657F4B1A6D7E4B80490A401A65DA
:1006A8007C4B1A6D7B4B802149020A431A65794BB2
:1006B8009A6B784B7A490A409A63FB1D00221A709C
:1006C800BB1D00221A707B1D00221A703B1D0022E0
:1006D8001A70FB1C00221A70FB1D05221A70714B40
:1006E800714A1A6533E0BB1D1B78012B05D8BB1D69
:1006F8001A78BB1D01321A7002E0BB1D00221A7065
:10070800BB1D1B7801221340DBB268481A00052183
:10071800FFF734FFBB1D1B7802221340DBB263488E
:100728001A000621FFF72AFFFA239B001800FFF79B
:100738000DFFA023DB051B6904221340FA1DF91DD8
:1007480009781170002B02D1FB1D01221A70FB1DC4
:100758001B78002BC7D04AE07B1D1B78082B05D8D7
:100768007B1D1A787B1D01321A7002E07B1D002266
:100778001A707B1D1B7801221340DBB24B481A000C
:100788000421FFF7FBFE7B1D1B7802221340DAB21F
:10079800A023DB0508211800FFF7F0FE7B1D1B785E
:1007A80004221340DAB2A023DB0500211800FFF76A
:1007B800E5FE7B1D1B7808221340DAB2A023DB0577
:1007C80001211800FFF7DAFEFA239B001800FFF753
:1007D800BDFEA023DB051B6904221340FA1DF91D89
:1007E80009781170002B02D1FB1D02221A70FB1D23
:1007F8001B78012BB0D03DE03B1D1B78052B05D89D
:100808003B1D1A783B1D01321A7002E03B1D002285
:100818001A703B1D1B7801221340DBB223481A00D3
:100828000321FFF7ABFE3B1D1B7802221340DBB20E
:100838001E481A000121FFF7A1FE3B1D1B78042268
:100848001340DBB219481A000021FFF797FEFA237C
:100858009B001800FFF77AFEA023DB051B69042222
:100868001340FA1DF91D09781170002B02D1FB1DE8
:1008780003221A70FB1D1B78022BBDD066E0FB1CFF
:100888001B78082B14D8FB1C1A78FB1C01321A7031
:1008980011E0C0460010024000700040FFFFFCFF5E
:1008A800FFFFFFEF002800405037170000040050FA
:1008B800FB1C00221A70FB1C1B7801221340DAB2C1
:1008C800A023DB050F211800FFF758FEFB1C1B783F
:1008D80002221340DAB2A023DB050B211800FFF730
:1008E8004DFEFB1C1B7804221340DAB2A023DB0563
:1008F8000A211800FFF742FEFB1C1B780822134050
:10090800DAB2A023DB0509211800FFF737FEFA2326
:100918009B001800FFF71AFEA023DB051B690422C1
:10092800134002D1FB1D00221A70BB1D1B781A054B
:100938007B1D1B781B041A433B1D1B781B031A43A2
:10094800FB1C1B781B021A432A4B1A65FB1D1B78DC
:10095800032B94D0274BCA225A62264B53225A6241
:10096800244B8022DA60C046224BDB6840221340C9
:10097800402BF9D11F4B204A1A611E4A1D4B126D9C
:100988001A601C4B9A681B4B40210A439A60194B0A
:100998009A68184B20210A439A60164B9A68154B9F
:1009A80016490A409A60C046124BDB680122134080
:1009B800012BF9D10F4B124ADA610E4B9A680D4B95
:1009C800882149010A439A600A4BDA68094B802159
:1009D8008A43DA60074BFE225A62064B64225A6247
:1009E800084B1A68074B05490A401A60C046BD46BD
:1009F80002B080BD00280040FF007F00FFFEFFFF1F
:100A0800008080800070004080B500AF244B1A68D9
:100A1800234B08210A431A60214B1A68204B0121F5
:100A28000A431A60C0461E4B1B6804221340FAD0C2
:100A38001B4B9A6B1A4B802149050A439A63194B41
:100A48001A68184BC02149010A431A60144BDA6826
:100A5800134B03218A43DA60114BDA68104B0121EA
:100A68000A43DA60C0460E4BDB680C221340042BA5
:100A7800F9D10B4BDA680A4B8021C9050A43DA60C1
:100A8800074BDA68064B802189040A43DA60044B75
:100A98009A6B034B04490A409A63C046BD4680BD21
:100AA8000010024000700040FFFFFFEF0D48854630
:100AB80000E000BF0C480D490D4A002302E0D4585D
:100AC800C4500433C4188C42F9D30A4A0A4C002390
:100AD80001E013600432A242FBD300F011F8FFF7E3
:100AE80029FCFEE70008002000000020000000208C
:100AF800700B00080000002028000020FEE700001E
:100B080070B500260C4D0D4C641BA410A64209D1EB
:100B1800002600F019F80A4D0A4C641BA410A642DE
:100B280005D170BDB300EB5898470136EEE7B30026
:100B3800EB5898470136F2E7680B0008680B000885
:100B4800680B00086C0B0008F8B5C046F8BC08BC78
:100B58009E467047F8B5C046F8BC08BC9E4670472C
:040B6800E1000008A0
:040B6C00B9000008C4
:0400000508000AB530
:00000001FF
